{
  "contractName": "vote",
  "abi": [
    {
      "anonymous": false,
      "inputs": [
        {
          "indexed": false,
          "internalType": "address",
          "name": "candidate",
          "type": "address"
        }
      ],
      "name": "add_voter",
      "type": "event"
    },
    {
      "anonymous": false,
      "inputs": [
        {
          "indexed": false,
          "internalType": "address",
          "name": "candidate",
          "type": "address"
        }
      ],
      "name": "delete_voter",
      "type": "event"
    },
    {
      "anonymous": false,
      "inputs": [
        {
          "indexed": false,
          "internalType": "address",
          "name": "candidate",
          "type": "address"
        }
      ],
      "name": "get_final",
      "type": "event"
    },
    {
      "anonymous": false,
      "inputs": [
        {
          "indexed": false,
          "internalType": "address",
          "name": "creater",
          "type": "address"
        }
      ],
      "name": "reset",
      "type": "event"
    },
    {
      "anonymous": false,
      "inputs": [
        {
          "indexed": false,
          "internalType": "address",
          "name": "candidate",
          "type": "address"
        }
      ],
      "name": "voting",
      "type": "event"
    },
    {
      "constant": true,
      "inputs": [
        {
          "internalType": "uint256",
          "name": "",
          "type": "uint256"
        }
      ],
      "name": "candidateList",
      "outputs": [
        {
          "internalType": "address",
          "name": "",
          "type": "address"
        }
      ],
      "payable": false,
      "stateMutability": "view",
      "type": "function"
    },
    {
      "constant": true,
      "inputs": [
        {
          "internalType": "address",
          "name": "",
          "type": "address"
        }
      ],
      "name": "votesReceived",
      "outputs": [
        {
          "internalType": "bool",
          "name": "",
          "type": "bool"
        }
      ],
      "payable": false,
      "stateMutability": "view",
      "type": "function"
    },
    {
      "constant": false,
      "inputs": [
        {
          "internalType": "address",
          "name": "candidate",
          "type": "address"
        }
      ],
      "name": "add_candidate",
      "outputs": [
        {
          "internalType": "uint256",
          "name": "",
          "type": "uint256"
        }
      ],
      "payable": false,
      "stateMutability": "nonpayable",
      "type": "function"
    },
    {
      "constant": false,
      "inputs": [
        {
          "internalType": "address",
          "name": "candidate",
          "type": "address"
        }
      ],
      "name": "remove_candidate",
      "outputs": [],
      "payable": false,
      "stateMutability": "nonpayable",
      "type": "function"
    },
    {
      "constant": false,
      "inputs": [],
      "name": "voteForCandidate",
      "outputs": [],
      "payable": false,
      "stateMutability": "nonpayable",
      "type": "function"
    },
    {
      "constant": false,
      "inputs": [],
      "name": "r_command",
      "outputs": [
        {
          "internalType": "string",
          "name": "",
          "type": "string"
        }
      ],
      "payable": false,
      "stateMutability": "nonpayable",
      "type": "function"
    },
    {
      "constant": false,
      "inputs": [],
      "name": "reset_command",
      "outputs": [],
      "payable": false,
      "stateMutability": "nonpayable",
      "type": "function"
    },
    {
      "constant": true,
      "inputs": [],
      "name": "vaildcreater",
      "outputs": [
        {
          "internalType": "bool",
          "name": "",
          "type": "bool"
        }
      ],
      "payable": false,
      "stateMutability": "view",
      "type": "function"
    },
    {
      "constant": true,
      "inputs": [
        {
          "internalType": "address",
          "name": "candidate",
          "type": "address"
        }
      ],
      "name": "validCandidate",
      "outputs": [
        {
          "internalType": "bool",
          "name": "",
          "type": "bool"
        }
      ],
      "payable": false,
      "stateMutability": "view",
      "type": "function"
    },
    {
      "constant": true,
      "inputs": [
        {
          "internalType": "address",
          "name": "candidate",
          "type": "address"
        }
      ],
      "name": "validVote",
      "outputs": [
        {
          "internalType": "bool",
          "name": "",
          "type": "bool"
        }
      ],
      "payable": false,
      "stateMutability": "view",
      "type": "function"
    },
    {
      "constant": false,
      "inputs": [],
      "name": "y_r_candidateList",
      "outputs": [],
      "payable": false,
      "stateMutability": "nonpayable",
      "type": "function"
    },
    {
      "constant": false,
      "inputs": [],
      "name": "r_candidateList",
      "outputs": [
        {
          "internalType": "address[]",
          "name": "",
          "type": "address[]"
        }
      ],
      "payable": false,
      "stateMutability": "nonpayable",
      "type": "function"
    },
    {
      "constant": false,
      "inputs": [],
      "name": "totalVotesFor",
      "outputs": [],
      "payable": false,
      "stateMutability": "nonpayable",
      "type": "function"
    }
  ],
  "bytecode": "0x60806040526000600460006101000a81548160ff0219169083151502179055506000600460016101000a81548160ff02191690831515021790555034801561004657600080fd5b50610ede806100566000396000f3fe608060405234801561001057600080fd5b50600436106100cf5760003560e01c80638e5759391161008c578063b07d2d2b11610066578063b07d2d2b14610340578063b13c744b1461034a578063d6f31115146103b8578063e35527db146103da576100cf565b80638e57593914610209578063a15dd62614610261578063aa4dfbfc146102bd576100cf565b80632811174a146100d45780632d438bbb146100de57806330c880c31461013d57806371851be81461019957806372603276146101f55780638d138e40146101ff575b600080fd5b6100dc61041e565b005b6100e661050f565b6040518080602001828103825283818151815260200191508051906020019060200280838360005b8381101561012957808201518184015260208101905061010e565b505050509050019250505060405180910390f35b61017f6004803603602081101561015357600080fd5b81019080803573ffffffffffffffffffffffffffffffffffffffff1690602001909291905050506105da565b604051808215151515815260200191505060405180910390f35b6101db600480360360208110156101af57600080fd5b81019080803573ffffffffffffffffffffffffffffffffffffffff1690602001909291905050506105fa565b604051808215151515815260200191505060405180910390f35b6101fd61069c565b005b6102076106cb565b005b61024b6004803603602081101561021f57600080fd5b81019080803573ffffffffffffffffffffffffffffffffffffffff169060200190929190505050610702565b6040518082815260200191505060405180910390f35b6102a36004803603602081101561027757600080fd5b81019080803573ffffffffffffffffffffffffffffffffffffffff1690602001909291905050506108d5565b604051808215151515815260200191505060405180910390f35b6102c5610954565b6040518080602001828103825283818151815260200191508051906020019080838360005b838110156103055780820151818401526020810190506102ea565b50505050905090810190601f1680156103325780820380516001836020036101000a031916815260200191505b509250505060405180910390f35b610348610a56565b005b6103766004803603602081101561036057600080fd5b8101908080359060200190929190505050610b9e565b604051808273ffffffffffffffffffffffffffffffffffffffff1673ffffffffffffffffffffffffffffffffffffffff16815260200191505060405180910390f35b6103c0610bda565b604051808215151515815260200191505060405180910390f35b61041c600480360360208110156103f057600080fd5b81019080803573ffffffffffffffffffffffffffffffffffffffff169060200190929190505050610c35565b005b610427336105fa565b61043057600080fd5b610439336108d5565b61044257600080fd5b600160036000828254019250508190555060016000803373ffffffffffffffffffffffffffffffffffffffff1673ffffffffffffffffffffffffffffffffffffffff16815260200190815260200160002060006101000a81548160ff0219169083151502179055507f8d5c9680b7f4a1bdc320a94fb68e308dea48720839e3cbf1dbd6b7c340d7002d33604051808273ffffffffffffffffffffffffffffffffffffffff1673ffffffffffffffffffffffffffffffffffffffff16815260200191505060405180910390a1565b606060011515600460019054906101000a900460ff16151514156105d6576000600460016101000a81548160ff02191690831515021790555060018054806020026020016040519081016040528092919081815260200182805480156105ca57602002820191906000526020600020905b8160009054906101000a900473ffffffffffffffffffffffffffffffffffffffff1673ffffffffffffffffffffffffffffffffffffffff1681526020019060010190808311610580575b505050505090506105d7565b5b90565b60006020528060005260406000206000915054906101000a900460ff1681565b600080600090505b600180549050811015610691578273ffffffffffffffffffffffffffffffffffffffff166001828154811061063357fe5b9060005260206000200160009054906101000a900473ffffffffffffffffffffffffffffffffffffffff1673ffffffffffffffffffffffffffffffffffffffff161415610684576001915050610697565b8080600101915050610602565b50600090505b919050565b6106a5336105fa565b6106ae57600080fd5b6001600460016101000a81548160ff021916908315150217905550565b6002600180549050816106da57fe5b046003541115610700576001600460006101000a81548160ff0219169083151502179055505b565b600061070c610bda565b61071557600080fd5b60008090505b6001805490508110156107aa578273ffffffffffffffffffffffffffffffffffffffff166001828154811061074c57fe5b9060005260206000200160009054906101000a900473ffffffffffffffffffffffffffffffffffffffff1673ffffffffffffffffffffffffffffffffffffffff16141561079d5760009150506108d0565b808060010191505061071b565b5060018290806001815401808255809150509060018203906000526020600020016000909192909190916101000a81548173ffffffffffffffffffffffffffffffffffffffff021916908373ffffffffffffffffffffffffffffffffffffffff1602179055505060008060008473ffffffffffffffffffffffffffffffffffffffff1673ffffffffffffffffffffffffffffffffffffffff16815260200190815260200160002060006101000a81548160ff0219169083151502179055507f1949685a128e683dcb4f6070bb765706a96f6fc01d2bc8bd0c934909464d5f9282604051808273ffffffffffffffffffffffffffffffffffffffff1673ffffffffffffffffffffffffffffffffffffffff16815260200191505060405180910390a1600190505b919050565b60006108e0826105fa565b6108e957600080fd5b600115156000808473ffffffffffffffffffffffffffffffffffffffff1673ffffffffffffffffffffffffffffffffffffffff16815260200190815260200160002060009054906101000a900460ff161515141561094a576000905061094f565b600190505b919050565b606061095e6106cb565b7f09411bd7c6381b52db201b81fe614a3816bb1fff5cc2796abd5f1f41398a61dc33604051808273ffffffffffffffffffffffffffffffffffffffff1673ffffffffffffffffffffffffffffffffffffffff16815260200191505060405180910390a160011515600460009054906101000a900460ff1615151415610a1a576040518060400160405280600d81526020017f636f6d6d616e64206973737565000000000000000000000000000000000000008152509050610a53565b6040518060400160405280601181526020017f636f6d6d616e64206e6f7420697373756500000000000000000000000000000081525090505b90565b610a5e610bda565b610a6757600080fd5b6000600460006101000a81548160ff021916908315150217905550600060038190555060008090505b600180549050811015610b3857600080600060018481548110610aaf57fe5b9060005260206000200160009054906101000a900473ffffffffffffffffffffffffffffffffffffffff1673ffffffffffffffffffffffffffffffffffffffff1673ffffffffffffffffffffffffffffffffffffffff16815260200190815260200160002060006101000a81548160ff0219169083151502179055508080600101915050610a90565b507f6b8ab97dce71006139e6b1174541526e6745a3afc35e58fcc83ad9cb0b3e962733604051808273ffffffffffffffffffffffffffffffffffffffff1673ffffffffffffffffffffffffffffffffffffffff16815260200191505060405180910390a1565b60018181548110610bab57fe5b906000526020600020016000915054906101000a900473ffffffffffffffffffffffffffffffffffffffff1681565b6000731741ec49de7579a8efd1a5cffb0c22c9e4772c9773ffffffffffffffffffffffffffffffffffffffff163373ffffffffffffffffffffffffffffffffffffffff161415610c2d5760019050610c32565b600090505b90565b610c3d610bda565b610c4657600080fd5b60008090505b600180549050811015610e42578173ffffffffffffffffffffffffffffffffffffffff1660018281548110610c7d57fe5b9060005260206000200160009054906101000a900473ffffffffffffffffffffffffffffffffffffffff1673ffffffffffffffffffffffffffffffffffffffff161415610e3557600060018281548110610cd357fe5b9060005260206000200160009054906101000a900473ffffffffffffffffffffffffffffffffffffffff16905060018080805490500381548110610d1357fe5b9060005260206000200160009054906101000a900473ffffffffffffffffffffffffffffffffffffffff1660018381548110610d4b57fe5b9060005260206000200160006101000a81548173ffffffffffffffffffffffffffffffffffffffff021916908373ffffffffffffffffffffffffffffffffffffffff1602179055508060018080805490500381548110610da757fe5b9060005260206000200160006101000a81548173ffffffffffffffffffffffffffffffffffffffff021916908373ffffffffffffffffffffffffffffffffffffffff1602179055506001805480610dfa57fe5b6001900381819060005260206000200160006101000a81549073ffffffffffffffffffffffffffffffffffffffff0219169055905550610e42565b8080600101915050610c4c565b507fc789dbc8228517eb596813f5d939001688951913d2b28410c482b550d8892eaa81604051808273ffffffffffffffffffffffffffffffffffffffff1673ffffffffffffffffffffffffffffffffffffffff16815260200191505060405180910390a15056fea265627a7a72315820dfc25e351b257be27ca766e74929eba2156d706c00be05907f3067989e9b3ba464736f6c63430005100032",
  "source": "pragma solidity ^0.5.1;\n\ncontract vote {\n\n    mapping (address => bool) public votesReceived;\n    address[] public candidateList;\n    address destination_address;\n    uint256 final_result;\n    bool command = false;\n    bool flag = false;\n    \n    event add_voter(address candidate);\n    event voting(address candidate);\n    event get_final(address candidate);\n    event reset(address creater);\n    event delete_voter(address candidate);\n    \n    function add_candidate(address candidate) public returns (uint) {\n        require(vaildcreater());\n        for(uint i=0; i < candidateList.length; i++){\n            if(candidateList[i] == candidate){\n                return 0;\n            }\n        }\n        candidateList.push(candidate);\n        votesReceived[candidate] = false;\n        emit add_voter(candidate);\n        return 1;\n    }\n    \n    function remove_candidate(address candidate) public {\n        require(vaildcreater());\n        for(uint i=0; i < candidateList.length; i++){\n            if(candidateList[i] == candidate){\n                address swap;\n                swap = candidateList[i];\n                candidateList[i] = candidateList[candidateList.length - 1];\n                candidateList[candidateList.length - 1] = swap;\n                candidateList.pop();\n                break;\n            }\n        }\n        emit delete_voter(candidate);\n    }\n\n    function voteForCandidate() public {\n        require(validCandidate(msg.sender));   \n        require(validVote(msg.sender));\n        final_result += 1; \n        votesReceived[msg.sender] = true;\n        emit voting(msg.sender);\n    }   \n    \n    function r_command() public returns (string memory) {\n        totalVotesFor();\n        emit get_final(msg.sender);\n        if (command == true) {\n            return \"command issue\";\n        } else {\n            return \"command not issue\";\n        }\n    }\n    \n    function reset_command() public {\n        require(vaildcreater());\n        command = false;\n        final_result = 0;\n        for(uint i=0; i < candidateList.length; i++){\n           votesReceived[candidateList[i]] = false;\n        }\n        emit reset(msg.sender);\n    }\n    \n    function vaildcreater() view public returns (bool) {\n        if(msg.sender == 0x1741Ec49De7579a8eFD1A5CFfB0C22c9e4772C97){\n            return true;\n        } else {\n            return false;\n        }\n    }\n\n    function validCandidate(address candidate) view public returns (bool) {\n        for(uint i = 0; i < candidateList.length; i++) {\n            if (candidateList[i] == candidate) {\n                return true;  \n            }      \n        }    \n        return false;   \n    }\n    \n    function validVote(address candidate) view public returns (bool) {\n        require(validCandidate(candidate));\n        if(votesReceived[candidate] == true){\n            return false;\n        }\n        else{\n            return true;\n        }\n    }\n    \n    function y_r_candidateList() public {\n        require(validCandidate(msg.sender));\n        flag = true;\n    }\n    \n    function r_candidateList() public returns (address[] memory){\n        if (flag == true) {\n            flag = false;\n            return candidateList;\n        }\n    }\n\n    \n    function totalVotesFor() public {\n        if (final_result > candidateList.length / 2){\n            command = true;\n        }\n    }\n}\n",
  "sourcePath": "/home/yuquan/Dapp/vote/contracts/vote.sol",
  "compiler": {
    "name": "solc",
    "version": "0.5.16+commit.9c3226ce.Emscripten.clang"
  },
  "schemaVersion": "3.4.3",
  "updatedAt": "2021-09-23T06:20:47.351Z",
  "networkType": "ethereum",
  "devdoc": {
    "methods": {}
  },
  "userdoc": {
    "methods": {}
  }
}