{
  "contractName": "vote",
  "abi": [
    {
      "anonymous": false,
      "inputs": [
        {
          "indexed": false,
          "internalType": "address",
          "name": "candidate",
          "type": "address"
        }
      ],
      "name": "add_voter",
      "type": "event"
    },
    {
      "anonymous": false,
      "inputs": [
        {
          "indexed": false,
          "internalType": "address",
          "name": "creater",
          "type": "address"
        }
      ],
      "name": "get_final",
      "type": "event"
    },
    {
      "anonymous": false,
      "inputs": [
        {
          "indexed": false,
          "internalType": "address",
          "name": "creater",
          "type": "address"
        }
      ],
      "name": "reset",
      "type": "event"
    },
    {
      "anonymous": false,
      "inputs": [
        {
          "indexed": false,
          "internalType": "address",
          "name": "candidate",
          "type": "address"
        }
      ],
      "name": "voting",
      "type": "event"
    },
    {
      "constant": true,
      "inputs": [
        {
          "internalType": "uint256",
          "name": "",
          "type": "uint256"
        }
      ],
      "name": "candidateList",
      "outputs": [
        {
          "internalType": "address",
          "name": "",
          "type": "address"
        }
      ],
      "payable": false,
      "stateMutability": "view",
      "type": "function"
    },
    {
      "constant": true,
      "inputs": [
        {
          "internalType": "address",
          "name": "",
          "type": "address"
        }
      ],
      "name": "votesReceived",
      "outputs": [
        {
          "internalType": "bool",
          "name": "",
          "type": "bool"
        }
      ],
      "payable": false,
      "stateMutability": "view",
      "type": "function"
    },
    {
      "constant": false,
      "inputs": [
        {
          "internalType": "address",
          "name": "candidate",
          "type": "address"
        }
      ],
      "name": "add_candidate",
      "outputs": [
        {
          "internalType": "uint256",
          "name": "",
          "type": "uint256"
        }
      ],
      "payable": false,
      "stateMutability": "nonpayable",
      "type": "function"
    },
    {
      "constant": false,
      "inputs": [],
      "name": "voteForCandidate",
      "outputs": [],
      "payable": false,
      "stateMutability": "nonpayable",
      "type": "function"
    },
    {
      "constant": false,
      "inputs": [],
      "name": "r_command",
      "outputs": [
        {
          "internalType": "string",
          "name": "",
          "type": "string"
        }
      ],
      "payable": false,
      "stateMutability": "nonpayable",
      "type": "function"
    },
    {
      "constant": false,
      "inputs": [],
      "name": "reset_command",
      "outputs": [],
      "payable": false,
      "stateMutability": "nonpayable",
      "type": "function"
    },
    {
      "constant": true,
      "inputs": [],
      "name": "vaildcreater",
      "outputs": [
        {
          "internalType": "bool",
          "name": "",
          "type": "bool"
        }
      ],
      "payable": false,
      "stateMutability": "view",
      "type": "function"
    },
    {
      "constant": true,
      "inputs": [
        {
          "internalType": "address",
          "name": "candidate",
          "type": "address"
        }
      ],
      "name": "validCandidate",
      "outputs": [
        {
          "internalType": "bool",
          "name": "",
          "type": "bool"
        }
      ],
      "payable": false,
      "stateMutability": "view",
      "type": "function"
    },
    {
      "constant": true,
      "inputs": [
        {
          "internalType": "address",
          "name": "candidate",
          "type": "address"
        }
      ],
      "name": "validVote",
      "outputs": [
        {
          "internalType": "bool",
          "name": "",
          "type": "bool"
        }
      ],
      "payable": false,
      "stateMutability": "view",
      "type": "function"
    },
    {
      "constant": true,
      "inputs": [],
      "name": "r_candidateList",
      "outputs": [
        {
          "internalType": "address[]",
          "name": "",
          "type": "address[]"
        }
      ],
      "payable": false,
      "stateMutability": "view",
      "type": "function"
    },
    {
      "constant": false,
      "inputs": [],
      "name": "totalVotesFor",
      "outputs": [],
      "payable": false,
      "stateMutability": "nonpayable",
      "type": "function"
    }
  ],
  "bytecode": "0x60806040526000600460006101000a81548160ff02191690831515021790555034801561002b57600080fd5b50610b8a8061003b6000396000f3fe608060405234801561001057600080fd5b50600436106100a95760003560e01c80638e575939116100715780638e575939146101d9578063a15dd62614610231578063aa4dfbfc1461028d578063b07d2d2b14610310578063b13c744b1461031a578063d6f3111514610388576100a9565b80632811174a146100ae5780632d438bbb146100b857806330c880c31461011757806371851be8146101735780638d138e40146101cf575b600080fd5b6100b66103aa565b005b6100c061049b565b6040518080602001828103825283818151815260200191508051906020019060200280838360005b838110156101035780820151818401526020810190506100e8565b505050509050019250505060405180910390f35b6101596004803603602081101561012d57600080fd5b81019080803573ffffffffffffffffffffffffffffffffffffffff169060200190929190505050610529565b604051808215151515815260200191505060405180910390f35b6101b56004803603602081101561018957600080fd5b81019080803573ffffffffffffffffffffffffffffffffffffffff169060200190929190505050610549565b604051808215151515815260200191505060405180910390f35b6101d76105eb565b005b61021b600480360360208110156101ef57600080fd5b81019080803573ffffffffffffffffffffffffffffffffffffffff169060200190929190505050610622565b6040518082815260200191505060405180910390f35b6102736004803603602081101561024757600080fd5b81019080803573ffffffffffffffffffffffffffffffffffffffff1690602001909291905050506107f5565b604051808215151515815260200191505060405180910390f35b610295610874565b6040518080602001828103825283818151815260200191508051906020019080838360005b838110156102d55780820151818401526020810190506102ba565b50505050905090810190601f1680156103025780820380516001836020036101000a031916815260200191505b509250505060405180910390f35b610318610976565b005b6103466004803603602081101561033057600080fd5b8101908080359060200190929190505050610abe565b604051808273ffffffffffffffffffffffffffffffffffffffff1673ffffffffffffffffffffffffffffffffffffffff16815260200191505060405180910390f35b610390610afa565b604051808215151515815260200191505060405180910390f35b6103b333610549565b6103bc57600080fd5b6103c5336107f5565b6103ce57600080fd5b600160036000828254019250508190555060016000803373ffffffffffffffffffffffffffffffffffffffff1673ffffffffffffffffffffffffffffffffffffffff16815260200190815260200160002060006101000a81548160ff0219169083151502179055507f8d5c9680b7f4a1bdc320a94fb68e308dea48720839e3cbf1dbd6b7c340d7002d33604051808273ffffffffffffffffffffffffffffffffffffffff1673ffffffffffffffffffffffffffffffffffffffff16815260200191505060405180910390a1565b6060600180548060200260200160405190810160405280929190818152602001828054801561051f57602002820191906000526020600020905b8160009054906101000a900473ffffffffffffffffffffffffffffffffffffffff1673ffffffffffffffffffffffffffffffffffffffff16815260200190600101908083116104d5575b5050505050905090565b60006020528060005260406000206000915054906101000a900460ff1681565b600080600090505b6001805490508110156105e0578273ffffffffffffffffffffffffffffffffffffffff166001828154811061058257fe5b9060005260206000200160009054906101000a900473ffffffffffffffffffffffffffffffffffffffff1673ffffffffffffffffffffffffffffffffffffffff1614156105d35760019150506105e6565b8080600101915050610551565b50600090505b919050565b6002600180549050816105fa57fe5b046003541115610620576001600460006101000a81548160ff0219169083151502179055505b565b600061062c610afa565b61063557600080fd5b60008090505b6001805490508110156106ca578273ffffffffffffffffffffffffffffffffffffffff166001828154811061066c57fe5b9060005260206000200160009054906101000a900473ffffffffffffffffffffffffffffffffffffffff1673ffffffffffffffffffffffffffffffffffffffff1614156106bd5760009150506107f0565b808060010191505061063b565b5060018290806001815401808255809150509060018203906000526020600020016000909192909190916101000a81548173ffffffffffffffffffffffffffffffffffffffff021916908373ffffffffffffffffffffffffffffffffffffffff1602179055505060008060008473ffffffffffffffffffffffffffffffffffffffff1673ffffffffffffffffffffffffffffffffffffffff16815260200190815260200160002060006101000a81548160ff0219169083151502179055507f1949685a128e683dcb4f6070bb765706a96f6fc01d2bc8bd0c934909464d5f9282604051808273ffffffffffffffffffffffffffffffffffffffff1673ffffffffffffffffffffffffffffffffffffffff16815260200191505060405180910390a1600190505b919050565b600061080082610549565b61080957600080fd5b600115156000808473ffffffffffffffffffffffffffffffffffffffff1673ffffffffffffffffffffffffffffffffffffffff16815260200190815260200160002060009054906101000a900460ff161515141561086a576000905061086f565b600190505b919050565b606061087e6105eb565b7f09411bd7c6381b52db201b81fe614a3816bb1fff5cc2796abd5f1f41398a61dc33604051808273ffffffffffffffffffffffffffffffffffffffff1673ffffffffffffffffffffffffffffffffffffffff16815260200191505060405180910390a160011515600460009054906101000a900460ff161515141561093a576040518060400160405280600d81526020017f636f6d6d616e64206973737565000000000000000000000000000000000000008152509050610973565b6040518060400160405280601181526020017f636f6d6d616e64206e6f7420697373756500000000000000000000000000000081525090505b90565b61097e610afa565b61098757600080fd5b6000600460006101000a81548160ff021916908315150217905550600060038190555060008090505b600180549050811015610a58576000806000600184815481106109cf57fe5b9060005260206000200160009054906101000a900473ffffffffffffffffffffffffffffffffffffffff1673ffffffffffffffffffffffffffffffffffffffff1673ffffffffffffffffffffffffffffffffffffffff16815260200190815260200160002060006101000a81548160ff02191690831515021790555080806001019150506109b0565b507f6b8ab97dce71006139e6b1174541526e6745a3afc35e58fcc83ad9cb0b3e962733604051808273ffffffffffffffffffffffffffffffffffffffff1673ffffffffffffffffffffffffffffffffffffffff16815260200191505060405180910390a1565b60018181548110610acb57fe5b906000526020600020016000915054906101000a900473ffffffffffffffffffffffffffffffffffffffff1681565b6000731741ec49de7579a8efd1a5cffb0c22c9e4772c9773ffffffffffffffffffffffffffffffffffffffff163373ffffffffffffffffffffffffffffffffffffffff161415610b4d5760019050610b52565b600090505b9056fea265627a7a7231582069c714bd359dad07ccb0c96387e8f071858450d0de0e19e3e11f59908039efb564736f6c63430005100032",
  "source": "pragma solidity ^0.5.1;\n\ncontract vote {\n\n    mapping (address => bool) public votesReceived;\n    address[] public candidateList;\n    address destination_address;\n    uint256 final_result;\n    bool command = false;\n    \n    event add_voter(address candidate);\n    event voting(address candidate);\n    event get_final(address creater);\n    event reset(address creater);\n    \n    function add_candidate(address candidate) public returns (uint) {\n        require(vaildcreater());\n        for(uint i=0; i < candidateList.length; i++){\n            if(candidateList[i] == candidate){\n                return 0;\n            }\n        }\n        candidateList.push(candidate);\n        votesReceived[candidate] = false;\n        emit add_voter(candidate);\n        return 1;\n    }\n\n    function voteForCandidate() public {\n        require(validCandidate(msg.sender));   \n        require(validVote(msg.sender));\n        final_result += 1; \n        votesReceived[msg.sender] = true;\n        emit voting(msg.sender);\n    }   \n    \n    function r_command() public returns (string memory) {\n        totalVotesFor();\n        emit get_final(msg.sender);\n        if (command == true) {\n            return \"command issue\";\n        } else {\n            return \"command not issue\";\n        }\n    }\n    \n    function reset_command() public {\n        require(vaildcreater());\n        command = false;\n        final_result = 0;\n        for(uint i=0; i < candidateList.length; i++){\n           votesReceived[candidateList[i]] = false;\n        }\n        emit reset(msg.sender);\n    }\n    \n    function vaildcreater() view public returns (bool) {\n        if(msg.sender == 0x1741Ec49De7579a8eFD1A5CFfB0C22c9e4772C97){\n            return true;\n        } else {\n            return false;\n        }\n    }\n\n    function validCandidate(address candidate) view public returns (bool) {\n        for(uint i = 0; i < candidateList.length; i++) {\n            if (candidateList[i] == candidate) {\n                return true;  \n            }      \n        }    \n        return false;   \n    }\n    \n    function validVote(address candidate) view public returns (bool) {\n        require(validCandidate(candidate));\n        if(votesReceived[candidate] == true){\n            return false;\n        }\n        else{\n            return true;\n        }\n    }\n    \n    function r_candidateList() view public returns (address[] memory){\n        return candidateList;\n    }\n\n    \n    function totalVotesFor() public {\n        if (final_result > candidateList.length / 2){\n            command = true;\n        }\n    }\n}\n",
  "sourcePath": "/home/yuquan/Dapp/vote/contracts/vote.sol",
  "compiler": {
    "name": "solc",
    "version": "0.5.16+commit.9c3226ce.Emscripten.clang"
  },
  "schemaVersion": "3.4.3",
  "updatedAt": "2021-09-22T07:59:07.842Z",
  "networkType": "ethereum",
  "devdoc": {
    "methods": {}
  },
  "userdoc": {
    "methods": {}
  }
}